{
  "contractName": "Wallet",
  "abi": [
    {
      "inputs": [
        {
          "internalType": "address",
          "name": "_comptroller",
          "type": "address"
        },
        {
          "internalType": "address",
          "name": "_cEthAddress",
          "type": "address"
        }
      ],
      "stateMutability": "nonpayable",
      "type": "constructor"
    },
    {
      "inputs": [],
      "name": "admin",
      "outputs": [
        {
          "internalType": "address",
          "name": "",
          "type": "address"
        }
      ],
      "stateMutability": "view",
      "type": "function"
    },
    {
      "inputs": [],
      "name": "cEth",
      "outputs": [
        {
          "internalType": "contract CEthInterface",
          "name": "",
          "type": "address"
        }
      ],
      "stateMutability": "view",
      "type": "function"
    },
    {
      "inputs": [],
      "name": "comptroller",
      "outputs": [
        {
          "internalType": "contract ComptrollerInterface",
          "name": "",
          "type": "address"
        }
      ],
      "stateMutability": "view",
      "type": "function"
    },
    {
      "inputs": [
        {
          "internalType": "address",
          "name": "cTokenAddress",
          "type": "address"
        }
      ],
      "name": "getUnderlyingBalance",
      "outputs": [
        {
          "internalType": "uint256",
          "name": "",
          "type": "uint256"
        }
      ],
      "stateMutability": "nonpayable",
      "type": "function"
    },
    {
      "inputs": [],
      "name": "getUnderlyingEthBalance",
      "outputs": [
        {
          "internalType": "uint256",
          "name": "",
          "type": "uint256"
        }
      ],
      "stateMutability": "nonpayable",
      "type": "function"
    },
    {
      "inputs": [
        {
          "internalType": "address",
          "name": "cTokenAddress",
          "type": "address"
        }
      ],
      "name": "getcTokenBalance",
      "outputs": [
        {
          "internalType": "uint256",
          "name": "",
          "type": "uint256"
        }
      ],
      "stateMutability": "view",
      "type": "function"
    },
    {
      "stateMutability": "payable",
      "type": "receive"
    },
    {
      "inputs": [
        {
          "internalType": "address",
          "name": "cTokenAddress",
          "type": "address"
        },
        {
          "internalType": "uint256",
          "name": "underlyingAmount",
          "type": "uint256"
        }
      ],
      "name": "deposit",
      "outputs": [],
      "stateMutability": "nonpayable",
      "type": "function"
    },
    {
      "inputs": [
        {
          "internalType": "address",
          "name": "cTokenAddress",
          "type": "address"
        },
        {
          "internalType": "uint256",
          "name": "underlyingAmount",
          "type": "uint256"
        },
        {
          "internalType": "address",
          "name": "recipient",
          "type": "address"
        }
      ],
      "name": "withdraw",
      "outputs": [],
      "stateMutability": "nonpayable",
      "type": "function"
    }
  ],
  "bytecode": "0x608060405234801561001057600080fd5b5060405161117f38038061117f8339818101604052604081101561003357600080fd5b8101908080519060200190929190805190602001909291905050508181816000806101000a81548173ffffffffffffffffffffffffffffffffffffffff021916908373ffffffffffffffffffffffffffffffffffffffff16021790555080600160006101000a81548173ffffffffffffffffffffffffffffffffffffffff021916908373ffffffffffffffffffffffffffffffffffffffff160217905550505033600260006101000a81548173ffffffffffffffffffffffffffffffffffffffff021916908373ffffffffffffffffffffffffffffffffffffffff160217905550505061105a806101256000396000f3fe60806040526004361061007f5760003560e01c8063703d795c1161004e578063703d795c14610210578063a44026a31461023b578063f0d23e8f1461027c578063f851a440146102e15761008f565b80631031cb5f1461009457806347e7ef24146100f95780635fe3b5671461015457806369328dec146101955761008f565b3661008f5761008d34610322565b005b600080fd5b3480156100a057600080fd5b506100e3600480360360208110156100b757600080fd5b81019080803573ffffffffffffffffffffffffffffffffffffffff1690602001909291905050506103a8565b6040518082815260200191505060405180910390f35b34801561010557600080fd5b506101526004803603604081101561011c57600080fd5b81019080803573ffffffffffffffffffffffffffffffffffffffff16906020019092919080359060200190929190505050610453565b005b34801561016057600080fd5b5061016961053a565b604051808273ffffffffffffffffffffffffffffffffffffffff16815260200191505060405180910390f35b3480156101a157600080fd5b5061020e600480360360608110156101b857600080fd5b81019080803573ffffffffffffffffffffffffffffffffffffffff16906020019092919080359060200190929190803573ffffffffffffffffffffffffffffffffffffffff16906020019092919050505061055e565b005b34801561021c57600080fd5b506102256108d8565b6040518082815260200191505060405180910390f35b34801561024757600080fd5b506102506109a5565b604051808273ffffffffffffffffffffffffffffffffffffffff16815260200191505060405180910390f35b34801561028857600080fd5b506102cb6004803603602081101561029f57600080fd5b81019080803573ffffffffffffffffffffffffffffffffffffffff1690602001909291905050506109cb565b6040518082815260200191505060405180910390f35b3480156102ed57600080fd5b506102f6610a78565b604051808273ffffffffffffffffffffffffffffffffffffffff16815260200191505060405180910390f35b600160009054906101000a900473ffffffffffffffffffffffffffffffffffffffff1673ffffffffffffffffffffffffffffffffffffffff16631249c58b826040518263ffffffff1660e01b81526004016000604051808303818588803b15801561038c57600080fd5b505af11580156103a0573d6000803e3d6000fd5b505050505050565b60008173ffffffffffffffffffffffffffffffffffffffff166370a08231306040518263ffffffff1660e01b8152600401808273ffffffffffffffffffffffffffffffffffffffff16815260200191505060206040518083038186803b15801561041157600080fd5b505afa158015610425573d6000803e3d6000fd5b505050506040513d602081101561043b57600080fd5b81019080805190602001909291905050509050919050565b600061045e83610a9e565b90508073ffffffffffffffffffffffffffffffffffffffff166323b872dd3330856040518463ffffffff1660e01b8152600401808473ffffffffffffffffffffffffffffffffffffffff1681526020018373ffffffffffffffffffffffffffffffffffffffff1681526020018281526020019350505050602060405180830381600087803b1580156104ef57600080fd5b505af1158015610503573d6000803e3d6000fd5b505050506040513d602081101561051957600080fd5b8101908080519060200190929190505050506105358383610b28565b505050565b60008054906101000a900473ffffffffffffffffffffffffffffffffffffffff1681565b600260009054906101000a900473ffffffffffffffffffffffffffffffffffffffff1673ffffffffffffffffffffffffffffffffffffffff163373ffffffffffffffffffffffffffffffffffffffff1614610621576040517f08c379a000000000000000000000000000000000000000000000000000000000815260040180806020018281038252600a8152602001807f6f6e6c792041646d696e0000000000000000000000000000000000000000000081525060200191505060405180910390fd5b8161062b846109cb565b101561069f576040517f08c379a000000000000000000000000000000000000000000000000000000000815260040180806020018281038252600f8152602001807f62616c616e636520746f6f206c6f77000000000000000000000000000000000081525060200191505060405180910390fd5b6106a7610d51565b6106b18383610df4565b60006106bc84610a9e565b90508073ffffffffffffffffffffffffffffffffffffffff1663a9059cbb83856040518363ffffffff1660e01b8152600401808373ffffffffffffffffffffffffffffffffffffffff16815260200182815260200192505050602060405180830381600087803b15801561072f57600080fd5b505af1158015610743573d6000803e3d6000fd5b505050506040513d602081101561075957600080fd5b8101908080519060200190929190505050506000610775610eea565b9050600081905060008173ffffffffffffffffffffffffffffffffffffffff166370a08231306040518263ffffffff1660e01b8152600401808273ffffffffffffffffffffffffffffffffffffffff16815260200191505060206040518083038186803b1580156107e557600080fd5b505afa1580156107f9573d6000803e3d6000fd5b505050506040513d602081101561080f57600080fd5b810190808051906020019092919050505090508173ffffffffffffffffffffffffffffffffffffffff1663a9059cbb86836040518363ffffffff1660e01b8152600401808373ffffffffffffffffffffffffffffffffffffffff16815260200182815260200192505050602060405180830381600087803b15801561089357600080fd5b505af11580156108a7573d6000803e3d6000fd5b505050506040513d60208110156108bd57600080fd5b81019080805190602001909291905050505050505050505050565b6000600160009054906101000a900473ffffffffffffffffffffffffffffffffffffffff1673ffffffffffffffffffffffffffffffffffffffff16633af9e669306040518263ffffffff1660e01b8152600401808273ffffffffffffffffffffffffffffffffffffffff168152602001915050602060405180830381600087803b15801561096557600080fd5b505af1158015610979573d6000803e3d6000fd5b505050506040513d602081101561098f57600080fd5b8101908080519060200190929190505050905090565b600160009054906101000a900473ffffffffffffffffffffffffffffffffffffffff1681565b60008173ffffffffffffffffffffffffffffffffffffffff16633af9e669306040518263ffffffff1660e01b8152600401808273ffffffffffffffffffffffffffffffffffffffff168152602001915050602060405180830381600087803b158015610a3657600080fd5b505af1158015610a4a573d6000803e3d6000fd5b505050506040513d6020811015610a6057600080fd5b81019080805190602001909291905050509050919050565b600260009054906101000a900473ffffffffffffffffffffffffffffffffffffffff1681565b60008173ffffffffffffffffffffffffffffffffffffffff16636f307dc36040518163ffffffff1660e01b815260040160206040518083038186803b158015610ae657600080fd5b505afa158015610afa573d6000803e3d6000fd5b505050506040513d6020811015610b1057600080fd5b81019080805190602001909291905050509050919050565b600082905060008173ffffffffffffffffffffffffffffffffffffffff16636f307dc36040518163ffffffff1660e01b815260040160206040518083038186803b158015610b7557600080fd5b505afa158015610b89573d6000803e3d6000fd5b505050506040513d6020811015610b9f57600080fd5b810190808051906020019092919050505090508073ffffffffffffffffffffffffffffffffffffffff1663095ea7b385856040518363ffffffff1660e01b8152600401808373ffffffffffffffffffffffffffffffffffffffff16815260200182815260200192505050602060405180830381600087803b158015610c2357600080fd5b505af1158015610c37573d6000803e3d6000fd5b505050506040513d6020811015610c4d57600080fd5b81019080805190602001909291905050505060008273ffffffffffffffffffffffffffffffffffffffff1663a0712d68856040518263ffffffff1660e01b815260040180828152602001915050602060405180830381600087803b158015610cb457600080fd5b505af1158015610cc8573d6000803e3d6000fd5b505050506040513d6020811015610cde57600080fd5b8101908080519060200190929190505050905060008114610d4a576040517f08c379a0000000000000000000000000000000000000000000000000000000008152600401808060200182810382526040815260200180610fe56040913960400191505060405180910390fd5b5050505050565b60008054906101000a900473ffffffffffffffffffffffffffffffffffffffff1673ffffffffffffffffffffffffffffffffffffffff1663e9af0292306040518263ffffffff1660e01b8152600401808273ffffffffffffffffffffffffffffffffffffffff168152602001915050600060405180830381600087803b158015610dda57600080fd5b505af1158015610dee573d6000803e3d6000fd5b50505050565b600082905060008173ffffffffffffffffffffffffffffffffffffffff1663852a12e3846040518263ffffffff1660e01b815260040180828152602001915050602060405180830381600087803b158015610e4e57600080fd5b505af1158015610e62573d6000803e3d6000fd5b505050506040513d6020811015610e7857600080fd5b8101908080519060200190929190505050905060008114610ee4576040517f08c379a0000000000000000000000000000000000000000000000000000000008152600401808060200182810382526051815260200180610f946051913960600191505060405180910390fd5b50505050565b60008060009054906101000a900473ffffffffffffffffffffffffffffffffffffffff1673ffffffffffffffffffffffffffffffffffffffff16639d1b5a0a6040518163ffffffff1660e01b815260040160206040518083038186803b158015610f5357600080fd5b505afa158015610f67573d6000803e3d6000fd5b505050506040513d6020811015610f7d57600080fd5b810190808051906020019092919050505090509056fe63546f6b656e2372656465656d556e6465726c79696e672829206661696c65642e2073656520436f6d706f756e64204572726f725265706f727465722e736f6c20666f72206d6f72652064657461696c7363546f6b656e236d696e742829206661696c65642e2073656520436f6d706f756e64204572726f725265706f727465722e736f6c20666f722064657461696c73a26469706673582212204ce34f087a393361edee03e2dd975f28400dfd2701a3f4f9344927451bb2b09364736f6c63430007030033",
  "immutableReferences": {},
  "source": "pragma solidity ^0.7.3;\r\n\r\nimport '@openzeppelin/contracts/token/ERC20/IERC20.sol';\r\nimport'./Compound.sol';\r\n\r\ncontract Wallet  is Compound {\r\n    address public  admin;\r\n\r\n    constructor (\r\n        address _comptroller,\r\n        address _cEthAddress\r\n    ) Compound (_comptroller, _cEthAddress) {\r\n        admin = msg.sender;\r\n    }\r\n\r\n    function deposit(\r\n        address cTokenAddress,\r\n        uint underlyingAmount\r\n    ) external {\r\n        address underlyingAddress = getUnderlyingAddress(cTokenAddress);\r\n        IERC20(underlyingAddress).transferFrom(msg.sender, address(this), underlyingAmount);\r\n        supply(cTokenAddress, underlyingAmount);\r\n    }\r\n\r\n    function withdraw(\r\n        address cTokenAddress,\r\n        uint underlyingAmount,\r\n        address recipient\r\n    ) \r\n    onlyAdmin()\r\n    external{\r\n        require(\r\n            getUnderlyingBalance(cTokenAddress) >= underlyingAmount,\r\n            'balance too low'\r\n        );\r\n        claimComp();\r\n        redeem(cTokenAddress, underlyingAmount);\r\n\r\n        address underlyingAddress = getUnderlyingAddress(cTokenAddress);\r\n        IERC20(underlyingAddress).transfer(recipient, underlyingAmount);\r\n\r\n        address compAddress = getCompAddress();\r\n        IERC20 compToken = IERC20(compAddress);\r\n        uint compAmount = compToken.balanceOf(address(this));\r\n        compToken.transfer(recipient, compAmount);\r\n    }\r\n    \r\n    receive() external payable {\r\n        supplyEth(msg.value);\r\n    }\r\n\r\n    modifier onlyAdmin(){\r\n        require(msg.sender == admin, 'only Admin');\r\n        _;\r\n    }\r\n    \r\n\r\n}",
  "sourcePath": "E:\\dishonored 2\\Blockchain\\Project\\blockchain\\Defi wallet\\contracts\\Wallet.sol",
  "compiler": {
    "name": "solc",
    "version": "0.7.3+commit.9bfce1f6.Emscripten.clang"
  },
  "schemaVersion": "3.4.4",
  "updatedAt": "2022-06-23T16:04:28.218Z",
  "devdoc": {
    "kind": "dev",
    "methods": {},
    "version": 1
  },
  "userdoc": {
    "kind": "user",
    "methods": {},
    "version": 1
  }
}